:020000040800F2
:1000000000C00020FD4700085D0A00085F0A0008E4
:10001000610A0008630A0008650A00080000000081
:10002000000000000000000000000000C1400008C7
:10003000670A00080000000061410008A5410008AF
:10004000454800084548000845480008454800085C
:10005000454800084548000845480008454800084C
:10006000454800084548000845480008454800083C
:100070004548000845480008690A0008790A000850
:10008000454800084548000845480008454800081C
:10009000454800084548000845480008454800080C
:1000A00045480008890A00084548000845480008F6
:1000B00045480008454800084548000845480008EC
:1000C00045480008454800084548000845480008DC
:1000D00045480008990A00084548000845480008B6
:1000E00045480008454800084548000845480008BC
:1000F00045480008454800084548000845480008AC
:10010000454800084548000845480008454800089B
:10011000454800084548000845480008454800088B
:10012000454800084548000845480008454800087B
:1001300000000000000000000000000000000000BF
:1001400000000000000000000000000000000000AF
:10015000000000000000000000000000000000009F
:10016000000000000000000000000000000000008F
:10017000000000000000000000000000000000007F
:10018000000000000000000000000000000000006F
:10019000000000000000000000000000000000005F
:1001A000000000000000000000000000000000004F
:1001B000000000000000000000000000000000003F
:1001C000000000000000000000000000000000002F
:1001D000000000000000000000000000000000001F
:0401E0005FF8E0F1F3
:1001F00010B5054C237833B9044B13B10448AFF361
:1002000000800123237010BDD000002000000000FA
:10021000B0EA000808B5034B1BB103490348AFF32C
:10022000008008BD00000000D4000020B0EA0008F3
:100230007BB972B90029BEBF00204FF0004106E033
:1002400008BF00281CBF6FF000414FF0FF3000F0E6
:10025000A9B9ADF1080C6DE904CE002909DB002B2A
:100260001ADB00F035F8DDF804E0DDE9022304B024
:100270007047404261EB4101002B1BDB00F028F886
:10028000DDF804E0DDE9022304B0404261EB410106
:10029000524263EB43037047524263EB430300F067
:1002A00017F8DDF804E0DDE9022304B0404261EB19
:1002B00041017047524263EB430300F009F8DDF857
:1002C00004E0DDE9022304B0524263EB43037047CC
:1002D0002DE9F047089E0D4604468846002B4DD177
:1002E0008A42944668D9B2FA82F252B101FA02F314
:1002F000C2F1200120FA01F10CFA02FC41EA0308E4
:1003000094404FEA1C41B8FBF1F71FFA8CFE01FB49
:10031000178807FB0EF0230C43EA084398420AD9DA
:100320001CEB030307F1FF3580F01E81984240F279
:100330001B81023F63441B1AB3FBF1F001FB103336
:1003400000FB0EFEA4B244EA0344A6450AD91CEB06
:10035000040400F1FF3380F00981A64540F20681D4
:10036000644402380021A4EB0E0440EA07401EB1A9
:100370000023D440C6E90043BDE8F0878B4208D98A
:10038000002E00F0EE800021C6E900050846BDE819
:10039000F087B3FA83F100294AD1AB4202D38242FB
:1003A00000F2FC80841A65EB030301209846002EBE
:1003B000E2D0C6E90048DFE702B9FFDEB2FA82F216
:1003C000002A40F09180A1EB0C0001214FEA1C476C
:1003D0001FFA8CFEB0FBF7F307FB1300250C45EA70
:1003E00000450EFB03F0A84208D91CEB050503F1FC
:1003F000FF3802D2A84200F2CE8043462D1AB5FB48
:10040000F7F007FB10550EFB00FEA4B244EA0544CA
:10041000A64508D91CEB040400F1FF3502D2A6451D
:1004200000F2B6802846A4EB0E0440EA03409EE7A3
:10043000C1F120078B4022FA07FC4CEA030C25FA95
:1004400007FA4FEA1C49BAFBF9F820FA07F309FB4F
:1004500018AA8D401FFA8CFE1D4300FA01F308FB19
:100460000EF02C0C44EA0A44A04202FA01F20BD925
:100470001CEB040408F1FF3A80F08880A04240F2AF
:100480008580A8F102086444241AB4FBF9F009FB42
:10049000104400FB0EFEADB245EA0444A64508D95F
:1004A0001CEB040400F1FF356CD2A6456AD9023872
:1004B000644440EA0840A0FB0295A4EB0E04AC4261
:1004C000C846AE4656D353D0002E69D0B3EB0802CF
:1004D00064EB0E0422FA01F304FA07F71F43CC4041
:1004E000C6E90074002147E70CFA02FCC2F12001C2
:1004F00025FA01F34FEA1C4720FA01F195400D431C
:10050000B3FBF7F107FB11331FFA8CFE280C40EA0E
:10051000034001FB0EF3834204FA02F408D91CEBFA
:10052000000001F1FF382FD283422DD902396044F7
:10053000C01AB0FBF7F307FB1300ADB245EA004564
:1005400003FB0EF0A84208D91CEB050503F1FF38A8
:1005500016D2A84214D9023B6544281A43EA014145
:1005600038E73146304607E72F46E4E61846F9E615
:100570004B45A9D2B9EB020865EB0C0E0138A3E795
:100580004346EAE7284694E74146D1E7D0467BE771
:100590006444023847E7023B65442FE7084606E714
:1005A0003146E9E6704700BF10F8012B11F8013B16
:1005B000012A28BF9A42F7D0D01A7047034613F891
:1005C000012B002AFBD1181A0138704708B50268C0
:1005D000034B9A4200D008BD00F0DEFAFBE700BFF3
:1005E000002C014072B6FEE700B591B02822002130
:1005F00006A804F061F90023019302930393049386
:100600000593012206924FF4803307930A92022247
:100610000D920E934FF4E0130F9306A800F0E4FA46
:1006200080B90F23019302210291002303934FF419
:1006300080620492059301A800F008FD20B911B072
:100640005DF804FBFFF7CEFFFFF7CCFF08B500F025
:1006500091FAFFF7C9FF00F00BF800F0E7F800F09F
:1006600067F903F0DFFA00F0C5F803F0FDFAFEE7E2
:1006700030B587B000240294039404940594144B7D
:100680009A6942F020029A619A6902F0200200926F
:10069000009A9A6942F004029A619B6903F004038C
:1006A0000193019B0B4D22464FF48071284600F0C8
:1006B000E7FE4FF480730293012303930494032312
:1006C000059302A9284600F0BBFD07B030BD00BF6E
:1006D000001002400008014000B5A5B02A4B01936C
:1006E0002A4B00932A4B2B4A2B49012005F002FD8F
:1006F0001FA805F0D9FA294B1F93294B2093294BAA
:100700002193294B22931FA805F0DCFA28B302A8F5
:1007100005F0F8FA0DF1280E0DF1080CBCE80F00F9
:10072000AEE80F00DCF80030CEF800300AAB002253
:1007300011460FA805F0F2F90FAB1C4A1C4908A896
:1007400005F03AFA06F01AF902461A4B08A91EA853
:1007500005F06EFA00231D930EE0A921164804F05F
:10076000B3F8D4E7CA21154804F0AEF81D9B013355
:100770001D93642003F014FB00221DA91EA805F0A0
:10078000A9F90028EED1F1E785470008474700089E
:100790003947000821470008C0300020B94500084B
:1007A000DD450008FD4500083D46000804F000084E
:1007B000FCEA000808EB0008D4EA000814EB000883
:1007C00008B54FF4FA7003F0EBFA094C01224FF42C
:1007D0008071204600F054FE4FF4FA7003F0E0FA06
:1007E00000224FF48071204600F04AFEE9E700BF86
:1007F0000008014008B5074A0021074803F05AFAEB
:10080000064B1860064A0021064803F053FA064BCF
:10081000186008BD68EB0008D90600082C300020DD
:1008200044EB0008C1070008EC00002000B583B0CD
:100830000E4B5A6942F001025A615B6903F00103F1
:100840000193019B002205210E2001F01DF90E20CD
:1008500001F052F9002205210F2001F015F90F20B7
:1008600001F04AF903B05DF804FB00BF001002403C
:100870000120704708B503F0E7FF162303604FF02F
:10088000FF3008BD08B54FF0FF31FFF7F3FFFEE77B
:1008900070B50C461646002506E0AFF300802146F1
:1008A00001F8010B01350C46B542F6DB304670BD50
:1008B00070B50C461646002504E014F8010BAFF3A2
:1008C00000800135B542F8DB304670BD08B50346FF
:1008D0000D4A12685AB10C4A106803440B4A117849
:1008E0000B4A521A934206D8074A136008BD064ABB
:1008F00008491160EFE700BE03F0A6FF0C23036078
:100900004FF0FF30F2E700BF343000200004000059
:1009100000C0002020AA00204FF0FF3070474FF4A5
:1009200000534B6000207047012070470020704743
:1009300008B50A480A4B03604FF4E13343600023D3
:100940008360C36003610C2242618361C36101F073
:1009500013FB00B908BDFFF745FEFBE7C0300020E0
:100960000038014070B586B00023029303930493CE
:1009700005930268334B9A4201D006B070BD04461D
:1009800003F558439A6942F480429A619A6902F4E5
:1009900080420092009A9A6942F004029A619B692F
:1009A00003F004030193019B4FF4007302930223AD
:1009B000039303230593244E02A9304600F040FC24
:1009C0004FF48063029300250395049502A93046F5
:1009D00000F036FC1D481E4B036045608560802397
:1009E000C36005614561202383614FF44053C361B7
:1009F00000F062FD00BB154BE3635C621548164BCB
:100A0000036010234360002383608022C26003617F
:100A1000436183614FF44053C36100F04DFD70B9F1
:100A20000C4BA3635C6200220521252001F02CF809
:100A3000252001F061F8A0E7FFF7D4FDDBE7FFF721
:100A4000D1FDEDE7003801400008014038300020BA
:100A5000580002407C30002044000240FEE7FEE7E0
:100A6000FEE7FEE7FEE7704708B5024800F084FEA7
:100A700008BD00BF7C30002008B5024800F07CFEB5
:100A800008BD00BF3830002008B5024801F084F8E6
:100A900008BD00BF0831002008B5024801F006FC7F
:100AA00008BD00BFC030002000B583B0114B9A696B
:100AB00042F001029A619A6902F001020092009AE2
:100AC000DA6942F08052DA61DB6903F08053019306
:100AD000019B00220F216FF0010000F0D5FF064AB4
:100AE000536823F0E06343F00073536003B05DF894
:100AF00004FB00BF001002400000014000B589B0B7
:100B000001460022192000F0BFFF192000F0F4FF79
:100B1000144B9A6942F400629A619B6903F4006382
:100B20000193019B02A903A800F06CFB00F05AFBA3
:100B30000D4BA3FB00239B0C013B0C480C4A0260AD
:100B400040F2E732C260436000230361836001F03A
:100B50002DF918B1012009B05DF804FB034800F03D
:100B6000DBFFF8E70010024083DE1B430831002062
:100B7000002C014008B5074A136843F010031360C6
:100B8000032000F06FFF0F20FFF7B8FFFFF78CFF87
:100B9000002008BD00200240034A1168034B1B7867
:100BA0000B441360704700BF503100200400002048
:100BB000014B1868704700BF5031002082B0084BCD
:100BC0001B68084AA2FB03235B0A00FB03F30193A3
:100BD00000BF019B5A1E0192002BF9D102B0704751
:100BE0000C000020D34D6210002800F0F18170B598
:100BF00082B00446036813F0010F2CD0994B5B6858
:100C000003F00C03042B1DD0964B5B6803F00C0320
:100C1000082B12D06368B3F5803F41D0002B55D12B
:100C200003F1804303F504331A6822F480321A601A
:100C30001A6822F480221A6037E08A4B5B6813F44A
:100C4000803FE7D0874B1B6813F4003F03D06368F5
:100C5000002B00F0BF81236813F0020F75D0814B89
:100C60005B6813F00C0F5FD07E4B5B6803F00C03E6
:100C7000082B54D02369002B00F08A807A4B012284
:100C80001A60FFF795FF0546764B1B6813F0020FBD
:100C900075D1FFF78DFF401B0228F5D903209EE197
:100CA000704A136843F480331360636843B3FFF7FB
:100CB0007FFF05466B4B1B6813F4003FCBD1FFF75A
:100CC00077FF401B6428F5D9032088E1B3F5A02FF6
:100CD00009D0644B1A6822F480321A601A6822F430
:100CE00080221A60E1E703F18043A3F53C331A68E0
:100CF00042F480221A601A6842F480321A60D4E703
:100D0000FFF756FF0546574B1B6813F4003FA2D070
:100D1000FFF74EFF401B6428F5D903205FE1514BDC
:100D20005B6813F4803FA5D14E4B1B6813F0020F94
:100D300003D02369012B40F04F814A4A136823F006
:100D4000F803616943EAC1031360236813F0080FD5
:100D500033D0A369002B5CD0434B0122C3F880241D
:100D6000FFF726FF05463F4B5B6A13F0020F21D1C8
:100D7000FFF71EFF401B0228F5D903202FE1394A57
:100D8000136823F0F803616943EAC1031360DCE7E9
:100D9000354B00221A60FFF70BFF0546314B1B68ED
:100DA00013F0020FD1D0FFF703FF401B0228F5D943
:100DB000032014E10120FFF701FF236813F0040F63
:100DC00000F09680274BDB6913F0805F34D1254B10
:100DD000DA6942F08052DA61DB6903F080530193F3
:100DE000019B0125214B1B6813F4807F26D0E3680B
:100DF000012B3DD0002B53D103F1804303F5043385
:100E00001A6A22F001021A621A6A22F004021A62B5
:100E100033E0154B0022C3F88024FFF7C9FE0546D6
:100E2000104B5B6A13F0020FC7D0FFF7C1FE401BE7
:100E30000228F5D90320D2E00025D3E70B4A136836
:100E400043F480731360FFF7B3FE0646074B1B683D
:100E500013F4807FCBD1FFF7ABFE801B6428F5D95C
:100E60000320BCE00010024000004242007000403D
:100E70005F4A136A43F001031362E36833B3FFF779
:100E800097FE06465A4B1B6A13F0020F2FD1FFF74D
:100E90008FFE801B41F288339842F3D903209EE0F5
:100EA000052B09D0524B1A6A22F001021A621A6A03
:100EB00022F004021A62E0E74D4B1A6A42F0040283
:100EC0001A621A6A42F001021A62D6E7FFF770FE50
:100ED0000646474B1B6A13F0020F08D0FFF768FE67
:100EE000801B41F288339842F3D9032077E0E5B9BB
:100EF000E369002B72D03E4A526802F00C02082AC5
:100F000056D0022B17D03B4B00221A66FFF750FE3B
:100F10000446374B1B6813F0007F47D0FFF748FEAD
:100F2000001B0228F5D9032059E0314AD36923F088
:100F30008053D361DCE72F4B00221A66FFF738FE9F
:100F400005462B4B1B6813F0007F06D0FFF730FEE1
:100F5000401B0228F5D9032041E0236AB3F5803F06
:100F60001AD023494B6823F47413226A606A02433F
:100F700013434B601F4B01221A66FFF719FE04460C
:100F80001B4B1B6813F0007F0ED1FFF711FE001BF7
:100F90000228F5D9032022E0154A536823F40033D0
:100FA000A1680B435360DCE7002018E0002016E046
:100FB000012B16D00E4B5B6803F48031226A9142FC
:100FC00011D103F47013626A93420ED1002006E03F
:100FD00001207047012002E0012000E0002002B063
:100FE00070BD0120FBE70120F9E70120F7E700BF12
:100FF00000100240000042420F4B5B6803F00C02FD
:10100000082A01D00D487047C3F383420C49885C1D
:1010100013F4803F0BD0084B5B68C3F34043094A8D
:10102000D35C064A02FB00F0B0FBF3F07047064BBE
:1010300003FB00F0704700BF0010024000127A006E
:101040008CEB00089CEB000800093D00002800F034
:10105000A08070B50D460446524B1B6803F0070391
:101060008B420BD24F4A136823F007030B431360E4
:10107000136803F007038B4240F08D80236813F060
:10108000020F17D013F0040F04D0474A536843F4FB
:10109000E0635360236813F0080F04D0424A53689A
:1010A00043F460535360404A536823F0F003A1684F
:1010B0000B435360236813F0010F31D06368012B99
:1010C00020D0022B25D0384A126812F0020F64D0CB
:1010D00035494A6822F0030213434B60FFF768FD6D
:1010E0000646314B5B6803F00C036268B3EB820F7A
:1010F00016D0FFF75DFD801B41F288339842F0D98E
:10110000032045E0284A126812F4003FE0D1012094
:101110003EE0254A126812F0007FD9D1012037E065
:10112000204B1B6803F00703AB420AD91D4A136822
:1011300023F007032B431360136803F00703AB424C
:101140002DD1236813F0040F06D0174A536823F4F7
:10115000E063E1680B435360236813F0080F07D086
:10116000114A536823F46053216943EAC103536071
:10117000FFF742FF0C4B5B68C3F303130B4AD35CCE
:10118000D8400B4B18600B4B1868FFF7B7FC0020DA
:1011900070BD012070470120FAE70120F8E7012027
:1011A000F6E700BF0020024000100240A0EB00085C
:1011B0000C00002008000020014B1868704700BF99
:1011C0000C00002008B5FFF7F7FF044B5B68C3F382
:1011D0000223034AD35CD84008BD00BF0010024080
:1011E000B0EB000808B5FFF7E7FF044B5B68C3F3FB
:1011F000C223034AD35CD84008BD00BF00100240A0
:10120000B0EB00080F2303600B4B5A6802F0030297
:1012100042605A6802F0F00282605A6802F4E062AA
:10122000C2605B68DB0803F4E0630361034B1B6887
:1012300003F007030B6070470010024000200240DB
:1012400070B582B00024A446B0E0874DAA4210D009
:1012500007D9864DAA420CD005F58035AA4208D0A0
:1012600013E0A5F58015AA4203D005F57025AA4222
:1012700007D18A68002A62D0012A5BD04361082422
:1012800003E0A5F58015AA42F3D0BEF1FF0F58D8B0
:101290000646BEF1FF0F56D84FEA8C0233680F2581
:1012A000954023EA050304FA02F2134333604B68C6
:1012B00013F0805F78D06E4B9A6942F001029A6118
:1012C0009B6903F001030193019B4FEA9C02951C6B
:1012D000684B53F825600CF003039D000F23AB40CF
:1012E00026EA0306644B984233D003F580639842A4
:1012F00000F0988003F58063984200F0958003F534
:101300008063984200F0928003F58063984200F079
:101310008F8003F58063984219D006231AE0CC68C9
:10132000B3E7CC680434B0E7CC680834ADE7CC68E8
:101330000C34AAE703610824A7E70024A5E70424E6
:10134000A3E7061DA5E7ACF108029200A6E7052376
:1013500000E00023AB4033430232464D45F82230D3
:101360004B6813F4801F65D0444A936843EA0E0328
:1013700093604B6813F4001F62D0404AD36843EA7D
:101380000E03D3604B6813F4003F5FD03B4A5368B1
:1013900043EA0E0353604B6813F4803F5CD0374A36
:1013A000136843EA0E0313600CF1010C0A6832FA69
:1013B0000CF357D0012303FA0CF302EA030E33EACD
:1013C0000202F1D14A68122A3FF63FAF122A3FF6D5
:1013D0005CAF01A555F822F0731200081F13000836
:1013E000291300083B1300088B1200088B12000819
:1013F0008B1200088B1200088B1200088B12000859
:101400008B1200088B1200088B1200088B12000848
:101410008B1200088B1200088B120008231300089F
:101420002F130008012395E7022393E7032391E795
:1014300004238FE7114A936823EA0E03936098E729
:101440000E4AD36823EA0E03D3609BE70B4A536826
:1014500023EA0E0353609EE7084A136823EA0E034B
:101460001360A1E702B070BD00002210000031102F
:10147000001002400000014000080140000401404B
:101480000AB10161704709040161704730B4012459
:10149000056CAC40C56B6C60046863604368102BDE
:1014A00005D0036899600368DA6030BC7047036850
:1014B0009A600368D960F8E700283AD010B4024671
:1014C00000681D4B984229D81C4B03441C49A1FBC2
:1014D00003131B099B0013641A4BD363022382F886
:1014E0002130016821F47F5121F030015368946864
:1014F0002343D468234314692343546923439469E1
:101500002343D46923430B430360002090630123EA
:1015100082F8213082F8200010BC70470A4B034447
:101520000749A1FB03131B099B001364074BD363FB
:10153000D4E70120704700BF07040240F8FFFDBF59
:10154000CDCCCCCC00000240F8FBFDBF0004024033
:1015500038B5044690F82000012832D0012084F8E4
:10156000200094F82100C0B2012804D0002384F8A0
:101570002030022038BD022084F821000020A06322
:101580002568286820F0010028602046FFF77EFFCC
:10159000E36A5BB12268136843F00E0313602268AC
:1015A000136843F0010313600020E3E72268136827
:1015B00023F0040313602268136843F00A031360E6
:1015C000EDE70220D6E790F82130DBB2022B06D0FF
:1015D00004238363002380F82030012070470268D1
:1015E000136823F00E0313600268136823F00103ED
:1015F0001360036CC16B012202FA03F34B6080F8A5
:101600002120002380F820301846704708B590F854
:101610002130DBB2022B03D004238363012008BDF9
:101620000268136823F00E0313600268136823F046
:101630000103136003684C4A93424ED9783A9342AF
:1016400024D01432934230D0143293422FD014322B
:1016500093422FD0143293422FD0143293422FD082
:10166000143293422FD002F5627293422ED014327C
:1016700093422DD0143293422CD01432934202D094
:101680004FF4803203E04FF4805200E00122374BE8
:101690005A60012380F82130002380F82030436B0A
:1016A000002B5ED098470020B9E71022EFE74FF4F7
:1016B0008072ECE74FF48052E9E74FF48032E6E7BE
:1016C0004FF48012E3E74FF08072E0E70122DEE79B
:1016D0001022DCE74FF48072D9E7254A934224D0E8
:1016E0001432934225D01432934224D014329342C0
:1016F00024D01432934224D01432934224D0143292
:10170000934224D002F56272934223D01432934262
:1017100022D01432934221D01432934202D04FF49B
:10172000803203E04FF4805200E00122114B5A60F6
:10173000AFE71022FAE74FF48072F7E74FF48052D8
:10174000F4E74FF48032F1E74FF48012EEE74FF008
:101750008072EBE70122E9E71022E7E74FF480729D
:10176000E4E700205BE700BF800002400004024085
:10177000080002400000024038B5C36B1A680468D4
:101780002568016C04238B40134200F09B8015F008
:10179000040F00F09780236813F0200F03D1236813
:1017A00023F00403236003689A4A934246D9783AA7
:1017B000934224D01432934228D01432934227D03B
:1017C0001432934227D01432934227D014329342DA
:1017D00027D01432934227D002F56272934226D06A
:1017E0001432934225D01432934224D014329342BF
:1017F00002D04FF4802203E04FF4804200E0042244
:10180000854B5A60C36A03B1984738BD4022F7E759
:101810004FF48062F4E74FF48042F1E74FF4802206
:10182000EEE74FF48002EBE74FF08062E8E7042236
:10183000E6E74022E4E74FF48062E1E7774A93422B
:1018400024D01432934225D01432934224D014323F
:10185000934224D01432934224D01432934224D0A1
:101860001432934224D002F56272934223D0143290
:10187000934222D01432934221D01432934202D0A8
:101880004FF4802203E04FF4804200E00422644BD6
:101890005A60B7E74022FAE74FF48062F7E74FF467
:1018A0008042F4E74FF48022F1E74FF48002EEE744
:1018B0004FF08062EBE70422E9E74022E7E74FF4CC
:1018C0008062E4E702238B40134200F0AB8015F006
:1018D000020F00F0A780236813F0200F06D12368C1
:1018E00023F00A032360012380F821300368494A6A
:1018F00093424BD9783A934224D0143293422DD05C
:10190000143293422CD0143293422CD0143293428E
:101910002CD0143293422CD0143293422CD002F5A6
:10192000627293422BD0143293422AD014329342E3
:1019300029D01432934202D04FF4003203E04FF426
:10194000005200E00222344B5A60002380F820301D
:10195000836A002B3FF459AF984756E72022F2E7FD
:101960004FF40072EFE74FF40052ECE74FF400320F
:10197000E9E74FF40012E6E74FF00072E3E70222D6
:10198000E1E72022DFE74FF40072DCE7234A9342CD
:1019900024D01432934225D01432934224D01432EE
:1019A000934224D01432934224D01432934224D050
:1019B0001432934224D002F56272934223D014323F
:1019C000934222D01432934221D01432934202D057
:1019D0004FF4003203E04FF4005200E00222104BBB
:1019E0005A60B2E72022FAE74FF40072F7E74FF4AB
:1019F0000052F4E74FF40032F1E74FF40012EEE743
:101A00004FF00072EBE70222E9E72022E7E74FF40C
:101A10000072E4E780000240000402400800024037
:101A200000000240082303FA01F111423FF4EDAE39
:101A300015F0080F3FF4E9AE236823F00E0323608E
:101A4000026CC16B012303FA02F24A60836380F8DF
:101A50002130002380F82030036B002B3FF4D5AEFB
:101A60009847D2E6074AD36823F4E0631B041B0CB3
:101A7000000200F4E060034343F0BF6343F400332B
:101A8000D360704700ED00E000B5194BDB68C3F38D
:101A90000223C3F1070CBCF1040F28BF4FF0040C64
:101AA00003F1040EBEF1060F18D9033B4FF0FF3EC1
:101AB0000EFA0CFC21EA0C0199400EFA03F322EA1B
:101AC0000303194300280BDB0901C9B200F1604090
:101AD00000F5614080F800135DF804FB0023E5E7A2
:101AE00000F00F000901C9B2024B1954F4E700BF1E
:101AF00000ED00E014ED00E0002807DB00F01F021D
:101B0000400901239340024A42F82030704700BF49
:101B100000E100E07047000090F83D30DBB2012B9F
:101B20002FD1022380F83D300268D36843F00103CF
:101B3000D3600368154A934218D002F500629342BD
:101B400014D0B3F1804F11D0A2F5983293420DD04A
:101B500002F58062934209D002F58062934205D07B
:101B60001A6842F001021A60002070479A6802F079
:101B70000702062A07D01A6842F001021A60002004
:101B80007047012070470020704700BF002C0140C3
:101B9000704770477047704710B5044603681A696C
:101BA00012F0020F11D0DA6812F0020F0DD06FF0B0
:101BB00002021A610123037703689B6913F0030F84
:101BC00070D0FFF7E6FF0023237723681A6912F02D
:101BD000040F12D0DA6812F0040F0ED06FF0040276
:101BE0001A610223237723689B6913F4407F5FD037
:101BF0002046FFF7CEFF0023237723681A6912F0EF
:101C0000080F12D0DA6812F0080F0ED06FF0080239
:101C10001A61042323772368DB6913F0030F4ED086
:101C20002046FFF7B6FF0023237723681A6912F0D6
:101C3000100F12D0DA6812F0100F0ED06FF01002F1
:101C40001A61082323772368DB6913F4407F3DD0B2
:101C50002046FFF79EFF0023237723681A6912F0BE
:101C6000010F03D0DA6812F0010F36D123681A6928
:101C700012F0800F03D0DA6812F0800F34D123689D
:101C80001A6912F0400F03D0DA6812F0400F32D117
:101C900023681A6912F0200F03D0DA6812F0200FBF
:101CA00030D110BDFFF774FF2046FFF773FF8AE7BE
:101CB0002046FFF76DFF2046FFF76CFF9BE72046AD
:101CC000FFF766FF2046FFF765FFACE72046FFF70A
:101CD0005FFF2046FFF75EFFBDE76FF001021A616C
:101CE0002046FEF773FCC1E76FF080021A612046C0
:101CF00000F089F8C3E76FF040021A612046FFF751
:101D00004AFFC5E76FF020021A61204600F07AF81A
:101D1000C7E700000368244A904212D002F500622F
:101D200090420ED0B0F1804F0BD0A2F59832904285
:101D300007D002F58062904203D002F580629042A3
:101D400003D123F070034A681343174A904212D01C
:101D500002F5006290420ED0B0F1804F0BD0A2F598
:101D60009832904207D002F58062904203D002F58B
:101D70008062904203D123F44073CA68134323F076
:101D800080034A69134303608B68C3620B688362F4
:101D9000054B984203D003F50063984201D10B69CB
:101DA0000363012343617047002C014040B310B529
:101DB000044690F83D30F3B1022384F83D302146CB
:101DC00051F8040BFFF7A6FF012384F8463084F88E
:101DD0003E3084F83F3084F8403084F8413084F855
:101DE000423084F8433084F8443084F8453084F835
:101DF0003D30002010BD80F83C30FFF78BFEDBE764
:101E00000120704770477047026802F10C0353E8E5
:101E1000003F23F0C0030C3242E800310029F3D127
:101E2000202380F841307047026802F10C0353E828
:101E3000003F23F490730C3242E800310029F3D1C3
:101E4000026802F1140353E8003F23F00103143247
:101E500042E800310029F3D1036B012B05D0202388
:101E600080F84230002303637047026802F10C03DC
:101E700053E8003F23F010030C3242E80031002900
:101E8000F3D1ECE790F84130DBB2212B01D00220F6
:101E900070478368B3F5805F17D0036A5A1C0262EB
:101EA0001A7803685A60C38C9BB2013B9BB2C3840F
:101EB0004BB90268D36823F08003D3600268D3680B
:101EC00043F04003D360002070470369002BE4D146
:101ED000036A1B880268C3F308035360036A023372
:101EE0000362E0E710B504460268136923F4405327
:101EF000C1680B43136183680269134342691A4343
:101F00000168CB6823F4B05323F00C031343CB6078
:101F10000268536923F4407381690B43536102687B
:101F2000134B9A4220D0FFF74DF9024602EB820292
:101F300002EB820263689B00B2FBF3F20D48A0FB48
:101F400002314909642303FB11231B013233A0FB37
:101F500003235B0903F0F00202EB011203F00F030D
:101F6000216813448B6010BDFFF73CF90246DDE7A2
:101F7000003801401F85EB5160B310B5044690F85E
:101F8000413013B3242384F841302268D36823F40A
:101F90000053D3602046FFF7A5FF2268136923F49E
:101FA000904313612268536923F02A035361226826
:101FB000D36843F40053D36000206064202384F886
:101FC000413084F84230606310BD80F84030FEF745
:101FD000C9FCD7E70120704738B590F84130DBB233
:101FE000202B30D1044600292FD00AB9012038BD5A
:101FF00001628284C28400234364212084F841006A
:10200000A06B134D8562A06B124DC562A06B124D83
:102010000563A06B436320681346021DA06BFFF7A6
:1020200097FA23686FF040021A60226802F11403E5
:1020300053E8003F43F08003143242E800310029A6
:10204000F3D10020D3E70220D1E70120CFE700BF82
:10205000E32000084B2100085B21000810B504466E
:1020600003685A6990F84130DBB2212B0AD023680B
:102070005A6902F0400294F84230DBB2222B19D0A8
:10208000002010BD02F08002002AF0D0226802F188
:10209000140353E8003F23F08003143242E8003178
:1020A0000029F3D1A06B08B1FFF78DFA2046FFF7A6
:1020B000ABFEDCE7002AE3D0226802F1140353E808
:1020C000003F23F04003143242E800310029F3D1ED
:1020D000E06B08B1FFF777FA2046FFF7A5FECFE7E0
:1020E000704708B50346406A1B681B6813F0200F51
:1020F0001AD10023C384026802F1140353E8003F9D
:1021000023F08003143242E800310029F3D1026841
:1021100002F10C0353E8003F43F040030C3242E865
:1021200000310029F3D108BDFFF7DAFFFBE708B55E
:102130000168CA6822F04002CA60202280F841206B
:10214000FFF7CEFF002008BD704708B5406AFFF7D3
:10215000FBFF08BD70477047704710B5446A23689D
:102160005A6994F84130DBB2212B10D023685A69A8
:1021700002F0400294F84230DBB2222B11D0636CA3
:1021800043F0100363642046FFF7E6FF10BD02F042
:102190008002002AEAD00023E3842046FFF734FEC1
:1021A000E4E7002AEBD00023E3852046FFF73CFE5E
:1021B000E5E708B5406A0023C385C384FFF7CCFF79
:1021C00008BD704790F84230DBB2222B69D183689A
:1021D000B3F5805F4FD0826AB3F5805F04D0002BE7
:1021E00056D10369002B53D103685B681370836A6F
:1021F00001338362C38D9BB2013B9BB2C385002B2D
:1022000051D100B583B00268D36823F02003D360B6
:102210000268D36823F48073D3600268536923F0A3
:1022200001035361202380F8423000234363036B92
:10223000012B33D100230363026802F10C0353E83E
:10224000003F23F010030C3242E800310029F3D1A3
:1022500003681A6812F0100F06D0002201921A6863
:1022600001925B680193019B818DFFF7AAFF00201B
:1022700003B05DF804FB0269002AACD1826A0368EE
:102280005B68C3F308031380836A02338362B1E798
:1022900003685B6803F07F031370A8E7FFF75AFF3A
:1022A000E5E70220704700207047000030B583B09A
:1022B000044602681368D068516913F00F0505D110
:1022C00013F0200F02D010F0200F19D12DB111F012
:1022D000010119D110F4907F16D1216B01297DD015
:1022E00013F0800F03D010F0800F40F0188113F02E
:1022F000400F03D010F0400F40F0158103B030BD07
:102300002046FFF75FFFF9E713F0010F06D010F446
:10231000807F03D0626C42F00102626413F0040F0C
:1023200004D019B1626C42F00202626413F0020F31
:1023300004D019B1626C42F00402626413F0080F19
:1023400007D010F0200F00D119B1626C42F00802E2
:102350006264626C002AD1D013F0200F02D010F01A
:10236000200F29D123685B6903F04003626C12F0EF
:10237000080F00D163B32046FFF756FD23685B6961
:1023800013F0400F20D0226802F1140353E8003FFD
:1023900023F04003143242E800310029F3D1E36B0B
:1023A00073B1634A5A63E06BFFF730F90028A5D098
:1023B000E06B436B9847A1E72046FFF703FFD1E7A7
:1023C0002046FFF7C9FE99E72046FFF7C5FE95E7CF
:1023D0002046FFF7C1FE002363648FE713F0100F60
:1023E0003FF47EAF10F0100F3FF47AAF002301935B
:1023F0001368019353680193019B536913F0400FD5
:1024000051D0E26B13685B689BB2002B3FF476AF50
:10241000A18D99427FF672AFE3859369202B37D067
:10242000226802F10C0353E8003F23F480730C325E
:1024300042E800310029F3D1226802F1140353E885
:10244000003F23F00103143242E800310029F3D1A8
:10245000226802F1140353E8003F23F040031432D2
:1024600042E800310029F3D1202384F842300023D0
:102470002363226802F10C0353E8003F23F01003AA
:102480000C3242E800310029F3D1E06BFFF79BF8F2
:1024900002236363A18DE38D9BB2C91A89B22046E2
:1024A000FFF78FFE2AE7A18DE38D9BB2C91A89B28F
:1024B000E38D9BB2002B3FF421AF00293FF41EAF08
:1024C000226802F10C0353E8003F23F490730C32AE
:1024D00042E800300028F3D1226802F1140353E8E7
:1024E000003F23F00103143242E800300028F3D10A
:1024F000202384F8423000232363226802F10C0376
:1025000053E8003F23F010030C3242E8003000286B
:10251000F3D1022363632046FFF753FEEEE6204625
:10252000FFF7B0FCEAE62046FFF701FEE6E600BF53
:10253000B321000808B5406A01234363036B012BF4
:1025400002D0FFF708FE08BD818D4908FFF739FE6C
:10255000F9E708B50346406A1B681B6813F0200FB3
:102560002BD10023C385026802F10C0353E8003F1E
:1025700023F480730C3242E800310029F3D1026861
:1025800002F1140353E8003F23F00103143242E840
:1025900000310029F3D1026802F1140353E8003F2F
:1025A00023F04003143242E800310029F3D1202304
:1025B00080F84230036B012B07D000234363036B89
:1025C000012B0FD0FFF7C6FD08BD026802F10C0316
:1025D00053E8003F23F010030C3242E80031002999
:1025E000F3D1EAE7818DFFF7ECFDEDE730B583B07D
:1025F000044613468162828500254564222280F8C4
:102600004220C26B1F489062E26B1F48D062E26BAF
:102610001E481063E26B556320680A46011DE06B9B
:10262000FEF796FF019523681A6801925B68019393
:10263000019B23695BB1226802F10C0353E8003F60
:1026400043F480730C3242E800310029F3D1226850
:1026500002F1140353E8003F43F00103143242E84F
:1026600000310029F3D1226802F1140353E8003F3E
:1026700043F04003143242E800310029F3D1002036
:1026800003B030BD53250008352500085B21000844
:1026900008B590F84230DBB2202B08D149B10AB915
:1026A000012008BD00230363FFF7A0FFF9E7022024
:1026B000F7E70120F5E7704700F1080343604FF0AA
:1026C000FF328260C3600361002303607047002310
:1026D0000361704743684B609A688A6051609960F3
:1026E0000861036801330360704730B40D68B5F1C9
:1026F000FF3F11D000F108031C465B681A68AA422C
:10270000FAD963684B6099608C6061600861036806
:102710000133036030BC70470469F2E70369416824
:1027200082688A60416851605A68824206D00022FD
:1027300002611A68013A1A601868704782685A6024
:10274000F5E710B5044601F0CDFCA26BE36B9A42AD
:1027500004D0002401F0E8FC204610BD0124F9E774
:1027600010B5044601F0BEFCA36B23B9012401F0AF
:10277000DBFC204610BD0024F9E770B50446154681
:10278000866B026C5AB903681BB100200136A66340
:1027900070BD406800F0E6FF00236360F6E76DB9A6
:1027A000806802F07BF8226CA3681344A36062681F
:1027B000934219D32368A3602846E7E7C06802F074
:1027C0006DF8226C5142E3689B1AE36022689342E1
:1027D00002D263680B44E360022D01D00020D5E7EC
:1027E00026B1013E0020D1E72846CFE70020CDE703
:1027F00008B50346026C62B10846D9681144D96035
:10280000D3F804C0614501D31968D960D96802F0D2
:1028100045F808BD38B5054601F064FC95F845401B
:1028200064B201E0013C64B2002C0ADD6B6A43B182
:1028300005F1240000F0D0FE0028F3D000F07CFF6A
:10284000F0E7FF2385F8453001F06EFC01F04AFC0B
:1028500095F8444064B201E0013C64B2002C0ADD0A
:102860002B6943B105F1100000F0B6FE0028F3D04B
:1028700000F062FFF0E7FF2385F8443001F054FCDC
:1028800038BD38B5E0B10D46044601F02BFC236895
:10289000E26B216C01FB023060600020A063A3604A
:1028A000013A02FB0133E360FF2384F8443084F8EB
:1028B0004530FDB9236963B901F036FC012038BD0C
:1028C0004FF0500383F31188BFF36F8FBFF34F8F27
:1028D000FEE704F1100000F07FFE0028ECD04FF07E
:1028E000E0234FF08052C3F8042DBFF34F8FBFF3A6
:1028F0006F8FE1E704F11000FFF7DEFE04F1240022
:10290000FFF7DAFED8E738B51D46049C0B4649B9F7
:102910002460E063236401212046FFF7B2FF84F8BE
:102920004C5038BD2260F4E740B94FF0500383F3B8
:102930001188BFF36F8FBFF34F8FFEE710B584B0E0
:102940001C46844653B192B189B94FF0500383F3CA
:102950001188BFF36F8FBFF34F8FFEE74FF0500327
:1029600083F31188BFF36F8FBFF34F8FFEE76AB118
:1029700050230393039B502B13D04FF0500383F34A
:102980001188BFF36F8FBFF34F8FFEE70029EFD0A1
:102990004FF0500383F31188BFF36F8FBFF34F8F56
:1029A000FEE7012384F8463000949DF81830604615
:1029B000FFF7A9FF204604B010BDF0B585B0019225
:1029C00088B10F461D460446B1B1022D20D1E36BFC
:1029D000012B1DD04FF0500383F31188BFF36F8F8D
:1029E000BFF34F8FFEE74FF0500383F31188BFF31F
:1029F0006F8FBFF34F8FFEE7036C002BE5D04FF0D6
:102A0000500383F31188BFF36F8FBFF34F8FFEE73F
:102A100000F098FE064658B9019B002B48D04FF0B5
:102A2000500383F31188BFF36F8FBFF34F8FFEE71F
:102A300000263DE02A4639462046FFF79EFE636A9F
:102A40007BB948B14FF0E0234FF08052C3F8042D1A
:102A5000BFF34F8FBFF36F8F01F066FB012005B00E
:102A6000F0BD04F1240000F0B7FD0028F4D04FF0D1
:102A7000E0234FF08052C3F8042DBFF34F8FBFF314
:102A80006F8FE9E701F050FB0020E8E702A800F0B3
:102A900005FE012619E0002384F8443021E00023DC
:102AA00084F8453023E02046FFF7B4FE00F074FCC4
:102AB00001F018FBA26BE36B9A42BBD3022DB9D095
:102AC000019B002BDED0002EE0D001F02DFB00F0AA
:102AD000C9FB01F007FB94F8442052B2B2F1FF3F6A
:102AE000D9D094F8452052B2B2F1FF3FD7D001F0CF
:102AF0001BFB01A902A800F0DDFDD8B92046FFF7B5
:102B000020FE0028CFD0019904F1100000F030FD24
:102B10002046FFF77FFE00F03FFC0028C8D14FF0B1
:102B2000E0234FF08052C3F8042DBFF34F8FBFF363
:102B30006F8FBDE72046FFF76DFE00F02DFC0020F3
:102B40008DE72DE9F84390B10F4616461C46054621
:102B5000B1B1022C20D1EB6B012B1DD04FF05003F3
:102B600083F31188BFF36F8FBFF34F8FFEE74FF0F2
:102B7000500383F31188BFF36F8FBFF34F8FFEE7CE
:102B8000036C002BE5D04FF0500383F31188BFF3A3
:102B90006F8FBFF34F8FFEE701F08EFBEFF31189CC
:102BA0004FF0500383F31188BFF36F8FBFF34F8F44
:102BB000AA6BEB6B9A4206D3022C04D0002089F357
:102BC0001188BDE8F88395F845804FFA88F82246C9
:102BD00039462846FFF7D1FDB8F1FF3F06D008F18E
:102BE00001035BB285F845300120E8E76B6A0BB959
:102BF0000120E4E705F1240000F0EEFC18B126B155
:102C000001203060DBE70120D9E70120D7E7F0B5EC
:102C100085B0019290B10F460446C1B100F092FD1B
:102C2000064600BB019B002B5ED04FF0500383F3A0
:102C30001188BFF36F8FBFF34F8FFEE74FF0500344
:102C400083F31188BFF36F8FBFF34F8FFEE7036CE1
:102C5000002BE3D04FF0500383F31188BFF36F8F45
:102C6000BFF34F8FFEE700263EE039462046FFF7D0
:102C7000BFFD013DA563236923B901F055FA012089
:102C800005B0F0BD04F1100000F0A6FC0028F4D05F
:102C90004FF0E0234FF08052C3F8042DBFF34F8F65
:102CA000BFF36F8FE9E701F03FFA0020E8E702A8E1
:102CB00000F0F4FC012621E0002384F8443029E0F0
:102CC000002384F845302BE02046FFF7A3FD00F0F9
:102CD00063FB09E02046FFF79DFD00F05DFB204609
:102CE000FFF73EFD00283FD101F0FCF9A56B002D58
:102CF000BBD1019B002BD6D0002ED8D001F014FA06
:102D000000F0B0FA01F0EEF994F844305BB2B3F1A0
:102D1000FF3FD1D094F845305BB2B3F1FF3FCFD045
:102D200001F002FA01A902A800F0C4FC0028D1D1E8
:102D30002046FFF715FD0028C6D0019904F12400B4
:102D400000F016FC2046FFF765FD00F025FB00288B
:102D5000CAD14FF0E0234FF08052C3F8042DBFF3E7
:102D60004F8FBFF36F8FBFE7002089E70023072B4A
:102D70000CD8074A52F833200AB10133F7E7044A66
:102D800042F8331002EBC30358607047704700BF2E
:102D90005431002070B504460D46164601F0A2F9E4
:102DA00094F844305BB2B3F1FF3F0DD094F8453056
:102DB0005BB2B3F1FF3F0BD001F0B6F9A36B5BB18F
:102DC0002046FFF727FD70BD002384F84430EDE76F
:102DD000002384F84530EFE73246294604F1240009
:102DE00000F0DEFBECE70000084B1B681B6823B912
:102DF000074B4FF0FF321A607047044B1B68DB68CB
:102E0000DB685A68024B1A60704700BF9831002097
:102E1000443600202DE9F04780460D461746994676
:102E2000089EDDF824A00A9C9200A521206B01F0E9
:102E300043FD236B07F18042013A03EB820727F041
:102E400007074FF0000CBCF10F0F0BD815F80C2042
:102E500004EB0C0383F8342015F80C3013B10CF19B
:102E6000010CF0E7002384F84330372E00D93726D1
:102E7000E662E66400252565201DFFF728FC04F1C5
:102E80001800FFF724FC2461C6F13806A6616462CD
:102E9000656584F858504A464146384601F0FCF8CA
:102EA0002060BAF1000F01D0CAF80040BDE8F087F9
:102EB00038B5002407E004EB840293000E48184460
:102EC000FFF7FAFB0134372CF5D90C4D2846FFF7F4
:102ED000F3FB0B4C2046FFF7EFFB0A48FFF7ECFB38
:102EE0000948FFF7E9FB0948FFF7E6FB084B1D60BF
:102EF000084B1C6038BD00BFA031002018360020F0
:102F00002C3600204C360020783600206436002015
:102F1000983100209C31002010B5044601F0E2F801
:102F2000224A136801331360214B1B685BB1214BAC
:102F30001B686BB91E4B1B68DA6AE36A9A4207D8B2
:102F40001B4B1C6004E01A4B1C601368012B29D03A
:102F5000194A1368013313606364E06A174B1B68F6
:102F6000984201D9154B186000EB8000211D144BCD
:102F700003EB8000FFF7AEFB01F0D6F80D4B1B68AA
:102F80007BB10B4B1B68DA6AE36A9A4209D24FF0B5
:102F9000E0234FF08052C3F8042DBFF34F8FBFF3EF
:102FA0006F8F10BDFFF784FFD2E700BF003600200F
:102FB00094310020603600201036002014360020A6
:102FC000A031002010B5044690F8593063B1012BB0
:102FD00011D0022B0ED04FF0500383F31188BFF3B2
:102FE0006F8FBFF34F8FFEE7006B00F0EDFF2046C1
:102FF00000F0EAFF10BD00F0E7FFFBE70F4B1B6896
:10300000D3B110B501F06EF80D4BDB68DC68201D04
:10301000FFF784FB0B4A1368013B1360074A1368F0
:10302000013B136001F080F82046FFF7CBFF034B14
:103030001B68002BE6D110BD704700BF043600208E
:10304000783600200036002008B5FFF7D7FF074B81
:103050001B68012BF9D94FF0E0234FF08052C3F8E1
:10306000042DBFF34F8FBFF36F8FEEE7A031002029
:1030700070B504460D46174B1E68174B1868043090
:10308000FFF74CFBB4F1FF3F0DD03444124B1B68EB
:103090005C60A64210D9114B18680F4B19680431B7
:1030A000FFF723FB70BD002DEFD00B4B19680431E7
:1030B0000B48FFF70FFBF5E70A4B1868064B19683A
:1030C0000431FFF712FB084B1B68A342EAD9064BF9
:1030D0001C60E7E78C360020943100209C310020F2
:1030E00064360020983100204436002030B587B087
:1030F0000B9C7CB10C9DB5B15C250495049D5C2DA9
:103100001AD04FF0500383F31188BFF36F8FBFF3D2
:103110004F8FFEE74FF0500383F31188BFF36F8F9B
:10312000BFF34F8FFEE74FF0500383F31188BFF3D7
:103130006F8FBFF34F8FFEE70C9D2C63022485F841
:10314000594000240394029505AC01940A9C009414
:10315000FFF760FE0C98FFF7DFFE059807B030BD63
:103160002DE9F04385B00746884614461E46900078
:1031700000F0B2FE00B381465C2000F0ADFE0546D3
:10318000B0B1C0F83090E5B1002385F85930039311
:1031900002950D9B01930C9B0093334622464146BA
:1031A0003846FFF737FE2846FFF7B6FE012005E058
:1031B000484600F009FFE6E74FF0FF3005B0BDE8F4
:1031C000F0834FF0FF30F9E710B588B00024059484
:1031D000069407AA06A905A800F004FE059B029321
:1031E000069B019300942346079A18491848FFF755
:1031F0007DFF184B186040B100F068FB012806D035
:10320000B0F1FF3F18D008B010BD0020F6E74FF036
:10321000500383F31188BFF36F8FBFF34F8F0E4BB3
:103220004FF0FF321A600D4B01221A600C4B002246
:103230001A6000F0E1FFE6E74FF0500383F31188D6
:10324000BFF36F8FBFF34F8FFEE700BFB8EB0008EF
:103250004930000840360020443600206036002007
:103260008C360020024A136801331360704700BF98
:103270000C360020014B1868704700BF8C360020C8
:10328000F8B53A4B1B68002B64D1394B1D680135EA
:103290001D60C5B9374B1B681B6843B14FF0500325
:1032A00083F31188BFF36F8FBFF34F8FFEE7314A6F
:1032B0001168314B186810601960304A1368013387
:1032C0001360FFF791FD2E4B1B68AB4238D90027E6
:1032D0002C4B1B68DB6A03EB83039A002A4B9B5839
:1032E000012B3CD901273AE00127224B1B681B68C0
:1032F00043B3204B1B68DB68DC6863689D4226D3C0
:10330000261D3046FFF70AFAA36A1BB104F1180024
:10331000FFF704FAE36A1D4A1268934201D91B4A77
:10332000136003EB83039A00314617481044FFF7FC
:10333000D1F9E26A134B1B68DB6A9A42D4D2D4E714
:103340000027D2E70E4B4FF0FF321A60C0E70C4A5D
:103350001360BDE70E4A13680133136000270D4B5D
:103360001B6803B101273846F8BD00BF0C360020AA
:103370008C360020983100209C31002048360020F7
:103380004436002094310020A03100201436002063
:10339000083600209036002038B5354B1B6843B9FD
:1033A0004FF0500383F31188BFF36F8FBFF34F8F3C
:1033B000FEE700F097FE2E4B1A68013A1A601B6870
:1033C000002B4FD12B4B1B680BB900244BE0002482
:1033D000294B1B681BB3284BDB68DC6804F1180021
:1033E000FFF79CF9251D2846FFF798F9E06A234B63
:1033F0001B68984201D9214B186000EB80002946D8
:103400001F4B03EB8000FFF765F9E26A1D4B1B6859
:10341000DB6A9A42DCD31C4B01221A60D8E70CB15C
:10342000FFF7E2FC194B1C6884B9174B1C68D4B138
:103430004FF0E0234FF08052C3F8042DBFF34F8FBD
:10344000BFF36F8F01240EE0013C07D0FFF718FF98
:103450000028F9D00C4B01221A60F5E70B4B002233
:103460001A60E2E7002400F05FFE204638BD00BF8E
:103470000C360020003600204C3600201436002088
:10348000A031002094310020903600200836002022
:1034900010B5A8B10446104B1B6843B14FF0500360
:1034A00083F31188BFF36F8FBFF34F8FFEE7FFF7F2
:1034B000D9FE00212046FFF7DBFDFFF76DFF48B97D
:1034C0004FF0E0234FF08052C3F8042DBFF34F8F2D
:1034D000BFF36F8F10BD00BF0C3600201F4B1B6861
:1034E0001BB11F4B01221A6070471D4B00221A604E
:1034F0001C4B1B6803EB83018A001B498A585AB98D
:103500000BB1013BF6E74FF0500383F31188BFF393
:103510006F8FBFF34F8FFEE703EB830082000A44F7
:1035200050684068506003EB830C4FEA8C0208320D
:10353000114488420BD003EB830291000A4A0A44EB
:103540005268D168094A1160064A136070474068A2
:1035500062469100044A0A445060ECE70C360020B1
:103560009036002014360020A03100209431002035
:1035700058B110B50C46094A11681831FFF7B5F873
:1035800001212046FFF774FD10BD4FF0500383F377
:103590001188BFF36F8FBFF34F8FFEE79431002088
:1035A00038B570B10D4614460A4A11681831FFF754
:1035B00091F80CB14FF0FF3521462846FFF758FD32
:1035C00038BD4FF0500383F31188BFF36F8FBFF303
:1035D0004F8FFEE79431002038B5C368DC6824B310
:1035E00004F118052846FFF799F8184B1B682BBB08
:1035F000251D2846FFF792F8E06A154B1B68984294
:1036000001D9134B186000EB80002946114B03EBE6
:103610008000FFF75FF8E26A0F4B1B68DB6A9A4293
:1036200011D901200D4B186038BD4FF0500383F3C2
:103630001188BFF36F8FBFF34F8FFEE7294608480D
:10364000FFF748F8E7E70020EEE700BF0C36002060
:1036500014360020A0310020943100209036002044
:103660004C36002060B110B5044600F03BFD094B1C
:103670001B682360084B1B68636000F055FD10BD9C
:103680004FF0500383F31188BFF36F8FBFF34F8F59
:10369000FEE700BF483600208C360020034B1B6835
:1036A0000360034B1B684360704700BF483600202F
:1036B0008C360020D8B170B50C46054601B300F039
:1036C00011FD1B4B19686B68C81A2268B2F1FF3FE5
:1036D00027D0184E3668D5F800C0B44501D08B42CB
:1036E00024D9824215D80023236001241AE04FF028
:1036F000500383F31188BFF36F8FBFF34F8FFEE743
:103700004FF0500383F31188BFF36F8FBFF34F8FD8
:10371000FEE75B1A134423602846FFF7BFFF00242F
:1037200000E0002400F000FD204670BD0124F9E710
:103730008C36002048360020014B01221A60704769
:1037400090360020054B1B6833B1054B1B680BB14D
:10375000002070470220704701207047603600202B
:103760000C36002000283BD038B504461E4B1B68A1
:10377000834208D04FF0500383F31188BFF36F8F5B
:10378000BFF34F8FFEE7036D43B94FF0500383F350
:103790001188BFF36F8FBFF34F8FFEE7013B0365C7
:1037A000C16AC26C91421DD00BB1002038BD051D0D
:1037B0002846FEF7B3FFE06CE062C0F13803A36176
:1037C0000A4B1B68984201D9084B186000EB800037
:1037D0002946074B03EB8000FEF77CFF0120E5E75D
:1037E000002070470020E1E79431002014360020CB
:1037F000A0310020064B1A681368B3FA83F35B0903
:10380000036013B9D368186870470020704700BF81
:103810009436002008B54160006191420CD8D21A5C
:1038200083699A4201D3012008BD011D094B186824
:10383000FEF75BFF0020F7E79A4201D2994206D2D9
:10384000011D054B1868FEF750FF0020ECE7012032
:10385000EAE700BF983600209436002030B583B0E8
:1038600000F040FC114B1B681BB100F05DFC03B085
:1038700030BD0F4D2846FEF71FFF0E4C2046FEF7C9
:103880001BFF0D4B1D600D4B1C60002300930C4B68
:103890000C4A10210A20FFF747F8044B1860002853
:1038A000E3D00949FFF762FADFE700BFB83700202D
:1038B0003C370020503700209436002098360020F6
:1038C000683700209C360020C0EB000810B588B097
:1038D000FFF7C4FF124B1B68CBB10024059406947C
:1038E00007AA06A905A800F089FA059B0293069B82
:1038F0000193022300932346079A0A490A48FFF7D7
:10390000F5FB0A4B186010B1012008B010BD4FF054
:10391000500383F31188BFF36F8FBFF34F8FFEE720
:10392000B8370020C8EB00080D3C0008BC37002069
:10393000B8B19C4603461848006858B300B585B036
:1039400000910192029305291CDCFFF7FBFE02287F
:1039500010D000231A4669460F480068FFF72DF87B
:1039600015E04FF0500383F31188BFF36F8FBFF35F
:103970004F8FFEE70023069A694607480068FFF765
:103980001CF804E0002362466946FFF7DAF805B048
:103990005DF804FB00207047B837002070B582B096
:1039A0001A4B1B681A6852B3DB681E68DC68251D59
:1039B0002846FEF7B3FE636A20469847E369012B69
:1039C000EED1A36933449E4207D263602461294645
:1039D0000E4B1868FEF789FEE2E7002100910B46C6
:1039E00032462046FFF7A4FF0028D9D14FF05003FC
:1039F00083F31188BFF36F8FBFF34F8FFEE7044A45
:103A0000106802490860136002B070BD943600204F
:103A10009836002038B50546FFF72CFC0446074BC6
:103A20001B68834205D800232B60044B1C60204692
:103A300038BDFFF7B3FF01232B60F6E764370020A2
:103A400070B582B006460D4614490968C968CC684D
:103A5000201DFEF763FEE169012904D0636A204658
:103A6000984702B070BDA16933462A4631442046CA
:103A7000FFF7D0FE0028F1D0002100910B4632461E
:103A80002046FFF755FF0028E8D14FF0500383F39D
:103A90001188BFF36F8FBFF34F8FFEE7943600207E
:103AA00070B582B006460C46FFF7DCFB01A8FFF7B5
:103AB000B1FF019B2BBB05460CB9B0421AD22CB109
:103AC000124B1B681C68B4FA84F464092246711B0B
:103AD0000F4B1868FFF75EF9FFF75EFC98B94FF0DF
:103AE000E0234FF08052C3F8042DBFF34F8FBFF394
:103AF0006F8F08E0FFF750FC29463046FFF7A0FF24
:103B000001E0FFF749FC02B070BD00BF983600200D
:103B1000B837002010B588B002E0049B002B0FDA04
:103B2000002204A9384B1868FFF771F8002869D003
:103B3000049B002BF1DA07990698059B9847ECE760
:103B4000069C636913B1201DFEF7E8FD03A8FFF78B
:103B500061FF049B092BE3D801A252F823F000BFB8
:103B6000893B0008893B0008893B0008213B00088D
:103B7000CF3B0008F53B0008893B0008893B000863
:103B8000213B0008CF3B0008059BA1690246194470
:103B90002046FFF73FFE0028C2D0636A20469847C0
:103BA000E369012BBCD1A269002100910B46059865
:103BB00002442046FFF7BCFE0028B1D14FF050036D
:103BC00083F31188BFF36F8FBFF34F8FFEE7059923
:103BD000A16131B10346024601442046FFF71AFEB7
:103BE0009EE74FF0500383F31188BFF36F8FBFF34D
:103BF0004F8FFEE794F82C30002B91D1204600F037
:103C0000E3F98DE708B010BDB837002000B583B0E8
:103C100001A8FFF7EFFD0199FFF742FFFFF77AFFD9
:103C2000F6E70000EFF3058393B9EFF3108393B940
:103C30000C4B1868022804D080B90A4B01221A6084
:103C40007047EFF31183002BF6D06FF0050070473B
:103C50006FF0050070476FF0050070474FF0FF30C0
:103C6000704700BF1C3A002008B5EFF30583B3B9D5
:103C7000EFF31083B3B90E4B1B68022B08D0012B56
:103C800013D10B4B02221A60FFF79EFA002008BDE9
:103C9000EFF31182002AF2D06FF00500F7E76FF022
:103CA0000500F4E76FF00500F1E74FF0FF30EEE7B5
:103CB0001C3A0020F0B587B000240494EFF305848B
:103CC000002C43D1EFF31083002B3FD1334B1B6803
:103CD000022B16D0002839D000238DF8173062B39C
:103CE000156895B1936903B918235C1E372C51D818
:103CF000546814F0010F4FD156694EB14FEA960C3B
:103D000008E0EFF311830BBBE4E70DF11705E9E7DA
:103D10004FF0800C94682CB1D7685B2F02D91769DB
:103D200007B1B6B914B14FF0FF340CE0D46894B9C0
:103D300014699CB14FF0FF3405E0002418234FF0C4
:103D4000800C0DF11705012C0AD0ACB1049807B016
:103D5000F0BD0124F7E74FF0FF34F4E70024F2E769
:103D6000146992680292019400930B4662462946B8
:103D7000FFF7BCF90490E9E704AA019200930B460F
:103D80001FFA8CF22946FFF7EBF90128DED0002359
:103D90000493DBE70020DAE70020D8E71C3A002094
:103DA00008B5EFF30583A3B9EFF31083A3B90C4B68
:103DB0001B68022B02D040B9002008BDEFF311832D
:103DC000002BF8D06FF00500F7E7FFF761FB00204C
:103DD000F3E76FF00500F0E76FF00500EDE700BFD7
:103DE0001C3A0020034B0360034B0B6080231360DD
:103DF000704700BFC0390020C0370020034B03606C
:103E0000034B0B604FF4807313607047203E00201B
:103E1000203A0020124A12F0070F1ED0D11D21F0C7
:103E20000701C1F5406313440A460E4802600021B1
:103E300041601344083B23F007030B4803605960BB
:103E40001960991A51601360084B1960084B19608A
:103E5000084B4FF000421A6070474FF44063E4E7AC
:103E6000803E00208C4A00207C3E0020884A0020B2
:103E7000844A0020804A0020154B1A461B68834262
:103E8000FBD3516802EB010C844509D0416800EB7B
:103E9000010C634509D00360904218D01060704750
:103EA0004068014451601046F0E710B4094C2468A2
:103EB000A3420AD05B681944416013681B68036021
:103EC000904200D0106010BC70470460F8E7704763
:103ED0008C4A00207C3E002070B50546FFF7C2F9F1
:103EE000344B1B68A3B1344B1B681D424AD135B11A
:103EF000083515F0070F02D025F007050835002D0D
:103F000042D02E4B1B68AB424DD32D4A146804E0BF
:103F1000FFF780FFE7E722461C466368AB4202D208
:103F20002368002BF7D1234B1B68A3423DD01668B2
:103F300008362368136063685B1B102B10D9601967
:103F400010F0070F08D04FF0500383F31188BFF330
:103F50006F8FBFF34F8FFEE743606560FFF78CFF05
:103F6000626816490B689B1A0B60164909688B42F8
:103F700001D214490B60104B1B681343636000238C
:103F8000236002E0002600E00026FFF705FA16F0A5
:103F9000070F0CD04FF0500383F31188BFF36F8FDE
:103FA000BFF34F8FFEE70026EFE70026EDE7304630
:103FB00070BD00BF7C3E0020804A0020844A002063
:103FC0008C4A0020884A002080B338B50446A0F10E
:103FD000080550F8043C164A1268134208D14FF005
:103FE000500383F31188BFF36F8FBFF34F8FFEE74A
:103FF00050F8081C41B14FF0500383F31188BFF310
:104000006F8FBFF34F8FFEE723EA020340F8043CB3
:10401000FFF728F954F8041C064A13680B44136090
:104020002846FFF729FFFFF7B7F938BD704700BFF3
:10403000804A0020844A002082B0002301930D4B67
:104040001B68B3F1FF3F08D04FF0500383F3118892
:10405000BFF36F8FBFF34F8FFEE74FF0500383F333
:104060001188BFF36F8FBFF34F8F019B002BFCD0E4
:1040700002B070471000002006480068006880F316
:10408000088862B661B6BFF34F8FBFF36F8F00DF52
:1040900000BF000008ED00E04FF0807340F8043CE2
:1040A00021F0010140F8081C034B40F80C3C40F89B
:1040B000202C4038704700BF394000080000000045
:1040C000074B19680868B0E8F00F80F30988BFF360
:1040D0006F8F4FF0000080F311884EF00D0E704787
:1040E000943100204FF0500383F31188BFF36F8F9A
:1040F000BFF34F8F0B4A136801331360012B00D0BD
:1041000070474FF0E023D3F8043D13F0FF0FF7D0D2
:104110004FF0500383F31188BFF36F8FBFF34F8FBE
:10412000FEE700BF10000020094B1B6843B94FF0A9
:10413000500383F31188BFF36F8FBFF34F8FFEE7F8
:10414000013B034A13600BB983F31188704700BF2A
:10415000100000200000000000000000000000002F
:10416000EFF30980BFF36F8F0D4B1A6820E9F00F52
:1041700010602DE908404FF0500080F31188FFF7E0
:10418000ADF94FF0000080F31188BDE808401968D0
:104190000868B0E8F00F80F30988BFF36F8F7047AD
:1041A0009431002008B54FF0500383F31188BFF31A
:1041B0006F8FBFF34F8FFFF763F828B14FF0E02305
:1041C0004FF08052C3F8042D002383F3118808BDFB
:1041D0004FF0E022002313619361054B1B680549F2
:1041E000A1FB03139B09013B536107231361704734
:1041F0000C000020D34D621010B582B02A4B1A7803
:10420000D2B20192FF221A701B78DBB28DF8033014
:104210009DF8033003F05003244A1370244B072207
:104220001A6009E0224A1368013B13609DF80330CD
:104230005B00DBB28DF803309DF8033013F0800F84
:10424000F0D11B4B1B68032B08D04FF0500383F3B6
:104250001188BFF36F8FBFF34F8FFEE71B02144A25
:10426000136003F4E0631360019BDBB20E4A13702A
:104270004FF0E023D3F8202D42F47002C3F8202D34
:10428000D3F8202D42F07042C3F8202DFFF7A0FF95
:104290000024084B1C60FFF7EFFEFFF71FF9FFF744
:1042A000CBFE204602B010BD00E400E0944A00209E
:1042B000984A002010000020EFF305830F2B0FD940
:1042C000114A9B5CDBB2114A12789A4208D94FF02E
:1042D000500383F31188BFF36F8FBFF34F8FFEE757
:1042E0004FF0E023D3F80C3D03F4E063084A126872
:1042F000934208D94FF0500383F31188BFF36F8FB7
:10430000BFF34F8FFEE77047F0E300E0944A0020D0
:10431000984A0020124A12F0070F1ED0D11D21F03A
:104320000701C1F5406313440A460E4802600021AC
:1043300041601344083B23F007030B4803605960B6
:104340001960991A51601360084B1960084B196085
:10435000084B4FF000421A6070474FF44063E4E7A7
:10436000A04A0020AC5600209C4A0020A8560020FD
:10437000A4560020A0560020154B1A461B68834205
:10438000FBD3516802EB010C844509D0416800EB76
:10439000010C634509D00360904218D0106070474B
:1043A0004068014451601046F0E710B4094C24689D
:1043B000A3420AD05B681944416013681B6803601C
:1043C000904200D0106010BC70470460F8E770475E
:1043D000AC5600209C4A002070B50546FEF742FF0F
:1043E000344B1B68A3B1344B1B681D424AD135B115
:1043F000083515F0070F02D025F007050835002D08
:1044000042D02E4B1B68AB424DD32D4A146804E0BA
:10441000FFF780FFE7E722461C466368AB4202D203
:104420002368002BF7D1234B1B68A3423DD01668AD
:1044300008362368136063685B1B102B10D9601962
:1044400010F0070F08D04FF0500383F31188BFF32B
:104450006F8FBFF34F8FFEE743606560FFF78CFF00
:10446000626816490B689B1A0B60164909688B42F3
:1044700001D214490B60104B1B6813436360002387
:10448000236002E0002600E00026FEF785FF16F01C
:10449000070F0CD04FF0500383F31188BFF36F8FD9
:1044A000BFF34F8FFEE70026EFE70026EDE730462B
:1044B00070BD00BF9C4A0020A0560020A4560020DA
:1044C000AC560020A856002080B338B50446A0F1B1
:1044D000080550F8043C164A1268134208D14FF000
:1044E000500383F31188BFF36F8FBFF34F8FFEE745
:1044F00050F8081C41B14FF0500383F31188BFF30B
:104500006F8FBFF34F8FFEE723EA020340F8043CAE
:10451000FEF7A8FE54F8041C064A13680B44136007
:104520002846FFF729FFFEF737FF38BD704700BF69
:10453000A0560020A456002050F8043C024A1068FF
:1045400023EA0000704700BFA056002070B5054662
:104550000C46FEF787FE2046FFF73EFF064678B181
:1045600075B12846FFF7E8FF0838844200D30446B7
:1045700022462946304600F091F92846FFF7A4FF6D
:10458000FEF70AFF304670BD38B505460C46FEF70B
:1045900069FE05FB04F42046FFF71EFF05460346AF
:1045A00003E0002103F8011B1446621E002CF8D121
:1045B000FEF7F2FE284638BD08B5034605490A68ED
:1045C00002440A6004490A6813440B60FFF704FFC1
:1045D00008BD00BFB4560020B856002058B110B531
:1045E0000446FFF7A9FF044A13681B1A136020460C
:1045F000FFF76AFF10BD7047B856002038B50C466B
:104600000C4A13680B4413600B4A13680B44136085
:1046100058B10546FFF790FF074A13681B1A13604D
:1046200021462846FFF792FF38BD0846FFF7D4FE23
:10463000FAE700BFB4560020B856002010B501FBC1
:1046400000F3054C22681A442260044C226813448B
:104650002360FFF799FF10BDB4560020B856002024
:104660002DE9F04107460E46144615A3D3E9002371
:10467000FBF7DEFD0D4680462060616010A3D3E9A4
:10468000002338463146FBF7D3FDA260002A01DB48
:10469000BDE8F081084981FB0231D317C3EB2173D8
:1046A0000133B8EB030165EBE375216065600349F5
:1046B00001FB0322A260EBE7A12FB84400CA9A3B9A
:1046C00000CA9A3B0000000030B583B00D460024BC
:1046D000009401946846FEF7C5FF0099019A4FEADD
:1046E000411C4CEAD26C53019B1A6CEB010C4FEA53
:1046F0004C2C4CEAD35C5B029B1841EB0C0C4FEA50
:104700008C1E4EEA936E9801C31A6EEB0C0C98182F
:104710002A4641EB0C01FFF7A3FF204603B030BD52
:1047200008B54FF400620349D0F88C02FDF7B0FFE2
:10473000012008BDBC56002008B5D0F88C02FDF75A
:104740008DFC012008BD70B5D0F88C5295F8413031
:10475000DBB2202B01D0002070BD144692B2284657
:10476000FDF73AFC064646B995F84130DBB2202BFE
:1047700003D00120FFF714FBF5E70EB92046EBE765
:104780000020E9E72DE9F8430D4614461F46D0F80E
:104790008C82002672B6D8F83C301B685868C0F589
:1047A0000060DFF84C90C9F8000062B601360120C5
:1047B000FFF7F6FA0F4B1B68D9F80020934214D18B
:1047C000BE42E7DB002008E00B49C95C29540133F5
:1047D000C3F30A0307490B600130064B1B689A427A
:1047E00001D0A042F0D3BDE8F8830020F5E700BF78
:1047F000C05E0020BC5E0020BC560020FDF75BFFC1
:104800000B480C490C4A002302E0D458C45004332E
:10481000C4188C42F9D3094A094C002301E0136003
:104820000432A242FBD300F015F8FBF70FFF7047EC
:1048300000000020D00000202CF60008D00000204E
:1048400020AA0020FEE70000014B1868704700BF57
:104850001400002070B500260C4D0D4C641BA410F4
:10486000A64209D10AF024F900260A4D0A4C641B1D
:10487000A410A64205D170BD55F8043B98470136F7
:10488000EEE755F8043B98470136F2E724F60008B6
:1048900024F6000824F6000828F600080A4491428D
:1048A00000F1FF3300D1704710B511F8014B914270
:1048B00003F8014FF9D110BD03460244934200D1E1
:1048C000704703F8011BF9E70FB40A4B13B51C68D6
:1048D00024B1A36913B9204600F066F805AB204661
:1048E000049AA168019300F0BBF902B0BDE8104042
:1048F00004B0704714000020002310B50446C0E93E
:104900000033C0E90433836081814366C2818361DF
:10491000194608225C30FFF7CFFF054B2462636223
:10492000044BA362044BE362044B236310BD00BF3E
:104930000D5200082F520008675200088B520008E1
:10494000014900F0AFB800BF5D550008682270B59E
:104950004D1E55430E4605F1740100F0E5F804467E
:1049600040B10021C0E900160C30A06005F16802DA
:10497000FFF7A2FF204670BD014800F0B3B800BFAA
:10498000C65E0020014800F0AEB800BFC65E002041
:10499000014800F0A7B800BFC75E0020014800F042
:1049A000A2B800BFC75E002010B50446FFF7F0FFB5
:1049B000A3691BB1BDE81040FFF7F0BFC4E9123393
:1049C0002365134B134A1B68A262A34208BF01234D
:1049D000204608BFA36100F01FF86060204600F089
:1049E0001BF8A060204600F017F800220421E060C8
:1049F0006068FFF781FF01220921A068FFF77CFFB3
:104A000002221221E068FFF777FF0123A361D1E7BB
:104A1000D0EB000841490008F8B50746FFF7ACFFA6
:104A20001E4B1E68B36913B93046FFF7BDFF483609
:104A3000D6E90134013B03D533680BB33668F7E799
:104A4000B4F90C50D5B9164B04F15800E360656613
:104A500000F047F8FFF796FF08222946C4E9015500
:104A6000C4E904552560A56104F15C00FFF724FF4B
:104A7000C4E90D55C4E912552046F8BD6834D9E79C
:104A800004213846FFF762FF044630600028D5D184
:104A9000FFF778FF0C233B60EEE700BFD0EB000888
:104AA0000100FFFF2DE9F84306468846002700F184
:104AB0004804D4E90195B9F1010905D52468002C11
:104AC000F7D13846BDE8F883AB89012B07D9B5F992
:104AD0000E30013303D029463046C04707436835BE
:104AE000E9E770477047704770B50E4E0C46316865
:104AF000054611B900F07AFB30602146284600F0E7
:104B000075FB431C0AD0C41C24F00304A04207D048
:104B1000211A284600F06AFB013001D14FF0FF3422
:104B2000204670BDCC5E00202DE9F041CD1C25F063
:104B3000030508350C2D38BF0C25002D074601DB79
:104B4000A94205D90C2300263B603046BDE8F08120
:104B50002E4E00F0DFFD33681C4634BB2946384634
:104B6000FFF7C2FF431C04464DD134682646002E91
:104B700040D123683146384604EB030800F036FB89
:104B800080453AD1216803356D1A25F003050835B3
:104B90000C2D38BF0C2538462946FFF7A5FF0130FC
:104BA0002BD023682B4423600EE02268521B1ED4B6
:104BB0000B2A16D96119A342256018BF5960636892
:104BC00008BF316062514B60384604F10B0600F0BB
:104BD000A7FD26F00706231DF21AB6D09B1BA35093
:104BE000B3E76268A3420CBF32605A60ECE7234629
:104BF0006468B2E734467668B9E70C2338463B6010
:104C000000F08EFDA1E72560DEE700BFC85E002052
:104C1000936810B4013B002B936007DA9469A342B8
:104C200001DB0A2902D110BC00F034BB1368581C08
:104C300010601970084610BC7047F8B506460F465C
:104C40001446D518AC4201D1002007E03A46304660
:104C500014F8011BFFF7DCFF431CF3D1F8BD000083
:104C60002DE9F04F0D461446984606469DB018B102
:104C700083690BB9FFF798FE894B9D421BD175687C
:104C80006B6ED90705D4AB899A0502D4A86DFFF7DE
:104C900029FFAB891B0701D52B69EBB929463046A3
:104CA00000F05CFBC0B16B6EDC070ED54FF0FF303F
:104CB0001DB0BDE8F08F7B4B9D4201D1B568DFE7A9
:104CC000794B9D4208BFF568DAE7AB899805EDD4CA
:104CD000A86DFFF708FFE9E70023099320238DF86B
:104CE000293030234FF00109CDF80C80DFF8BC816A
:104CF0008DF82A3023469A4613F8012B0AB1252A4B
:104D0000F9D1BAEB040B0BD05B462246294630465C
:104D1000FFF793FF013000F0AA80099A5A440992E4
:104D20009AF80030002B00F0A28000234FF0FF32F1
:104D3000CDE905230AF1010A049307938DF8533056
:104D40001A935446052214F8011B584800F0BAFC87
:104D5000049AD8B9D10644BF20238DF853301307E5
:104D600044BF2B238DF853309AF800302A2B15D0EE
:104D7000544600204FF00A0C079A214611F8013BD7
:104D8000303B092B4ED9B0B1079214E0A0EB0803D9
:104D900009FA03F31343A2460493D2E7039B191DB8
:104DA0001B680391002BBBBF5B4242F002020793DA
:104DB0000793B8BF049223782E2B0CD163782A2B4B
:104DC00035D1039B02341A1D1B680392002BB8BF18
:104DD0004FF0FF330593DFF8D8A003225046217827
:104DE00000F070FC40B14023A0EB0A0003FA00F091
:104DF000049B01340343049314F8011B06222D483D
:104E00008DF8281000F05EFC00283FD02A4B1BBB19
:104E1000039B073323F0070308330393099B3B44A9
:104E2000099367E70C4601200CFB0232A5E700233B
:104E30004FF00A0C194601340593204610F8012B57
:104E4000303A092A03D9002BC5D00591C3E704469F
:104E500001230CFB0121F0E703AB00932A46304607
:104E6000164B04A9AFF300800746781CD6D16B6EB1
:104E7000D90705D4AB899A0502D4A86DFFF733FE94
:104E8000AB895B063FF512AF099811E703AB0093BE
:104E90002A463046094B04A900F082F8E4E700BF37
:104EA000F4EB000814EC0008D4EB000834EC000824
:104EB0003AEC00083EEC0008000000003B4C000803
:104EC0002DE9F047164699468A680B6907469342D2
:104ED000B8BF1346336091F843200C46DDF82080BC
:104EE0000AB1013333602368990642BF3368023345
:104EF0003360256815F0060506D104F1190AE36848
:104F000032689B1AAB4228DC94F84320131E2268B7
:104F100018BF012392062DD44946384604F14302B6
:104F2000C047013020D02368E56803F00603042B56
:104F300018BF002532684FF00006A36808BFAD1AFD
:104F4000226908BF25EAE5759342C4BF9B1AED1894
:104F50001A34B5421AD1002008E0012352464946CE
:104F60003846C047013003D14FF0FF30BDE8F0872D
:104F70000135C4E73020E11881F843005A1C94F849
:104F800045102244023382F84310C5E7012322462C
:104F900049463846C0470130E6D00136D9E700001F
:104FA0002DE9FF470F7E9146782F80460C469A46A2
:104FB0000C9D01F1430207D8622F0AD8002F00F0A0
:104FC000D980582F00F0A48004F1420584F8427083
:104FD0003AE0A7F16303152BF6D801A151F823F0AD
:104FE000395000084D500008C94F0008C94F00084B
:104FF000C94F0008C94F00084D500008C94F0008AC
:10500000C94F0008C94F0008C94F00085B5100088C
:105010007D5000083D510008C94F0008C94F0008E5
:105020007D510008C94F00087D500008C94F000895
:10503000C94F0008455100082B681A1D1B682A60DB
:1050400004F1420584F842300123A4E02068296875
:10505000060601F104030AD50E682B60002E03DA60
:105060002D23764284F843300A235E4819E00E6807
:1050700010F0400F2B6018BF36B2EFE72B682068A6
:10508000191D2960010601D51E6802E04606FBD500
:105090001E886F2F0CBF08230A235248002184F872
:1050A00043106568002DA8BF2168A560A4BF21F04A
:1050B000040121600EB9002D4DD01546B6FBF3F169
:1050C00003FB1167C75D05F8017D3746BB420E46FD
:1050D000F4D9082B0BD12368DE0708D52369616852
:1050E0009942DEBF302305F8013C05F1FF35521B24
:1050F00022614B4621464046CDF800A003AAFFF7A7
:10510000DFFE01304CD14FF0FF3004B0BDE8F08736
:10511000344881F845702968236851F8046B296088
:105120001D0614D5DF0744BF43F0200323601EB9DA
:10513000236823F0200323601023AFE7236843F0A4
:10514000200323607823284884F84530E3E7590694
:1051500048BFB6B2E6E71546BBE72B682668181DC0
:105160006169286035061B6801D5196002E0700688
:10517000FBD51980002315462361BAE72B6800216F
:105180001A1D2A601D686268284600F09BFA08B163
:10519000401B606063682361002384F84330A8E704
:1051A0002A46494640462369D0470130ABD02368A0
:1051B0009B0713D4E068039B9842B8BF1846A4E746
:1051C0000123324649464046D04701309BD0013545
:1051D000E36803995B1AAB42F2DCEBE7002504F1CC
:1051E0001906F5E745EC000856EC000838B5002331
:1051F000054D044608462B60FBF768FB431C02D1B3
:105200002B6803B1236038BDD05E002010B50C467A
:10521000B1F90E1000F002FB0028ABBF636DA3894B
:105220001B1823F48053ACBF6365A38110BD2DE927
:10523000F0411F468B890546DB050C46164605D511
:1052400002230022B1F90E1000F0C4F9A3893246FE
:1052500023F48053A38128463B46B4F90E10BDE8E1
:10526000F04100F069B810B50C46B1F90E1000F02D
:10527000B1F9431CA38915BF606523F4805343F43F
:105280008053A38118BFA38110BDB1F90E1000F0A7
:10529000D3B80000F8B50E461446054618B1836928
:1052A0000BB9FFF781FB214B9C422BD16C68A369A2
:1052B000A360A3891A072FD523696BB323692068DC
:1052C000F6B2C01A63693746834204DC2146284699
:1052D00000F044F930BBA3680130013BA3602368B0
:1052E0005A1C22601E706369834204D0A389DB07C5
:1052F00006D50A2E04D12146284600F02FF988B998
:105300003846F8BD0A4B9C4201D1AC68CFE7094B47
:105310009C4208BFEC68CAE72146284600F01EF808
:105320000028CBD04FF0FF37EAE700BFF4EB0008CE
:1053300014EC0008D4EB000838B5044608461146C2
:105340000022054D2A601A46FBF7B2FA431C02D12F
:105350002B6803B1236038BDD05E0020324B70B59E
:105360001D6806460C4625B1AB6913B92846FFF700
:105370001BFB2E4B9C420FD16C68A389B4F90C2007
:1053800019072CD4DD0611D40923336042F0400301
:105390004FF0FF30A3813EE0254B9C4201D1AC6829
:1053A000EBE7244B9C4208BFEC68E6E7580712D5B0
:1053B000616B41B104F14403994202D0304600F0E0
:1053C000B5F900236363A38923F02403A381002399
:1053D000636023692360A38943F00803A3812369E1
:1053E0004BB9A38903F42073B3F5007F03D02146A2
:1053F000304600F027F9A089B4F90C2010F0010321
:105400000AD00023A36063695B42A361236943B9A7
:1054100010F08000BAD170BD810758BF6369A360E6
:10542000F4E70020F7E700BF14000020F4EB0008C9
:1054300014EC0008D4EB000838B50023054D0446F1
:1054400008462B60FBF768FA431C02D12B6803B1B6
:10545000236038BDD05E00208A89F8B50546100764
:105460000C4657D44B68002B04DC0B6C002B01DC82
:105470000020F8BDE66A002EFAD0002312F4805214
:105480002F682B6032D0606DA3895A0705D56368F9
:10549000C01A636B0BB1236CC01A00230246E66A84
:1054A0002846216AB047431CA38906D129681D29D3
:1054B0002CD8294ACA40D60728D500226260226922
:1054C000D904226004D5421C01D12B6803B9606560
:1054D000616B2F600029CBD004F14403994202D0C4
:1054E000284600F023F900206063C2E7216A012307
:1054F0002846B047411CC7D12B68002BC4D01D2BB8
:1055000001D0162B01D12F60B2E7A38943F04003ED
:10551000A381AEE70F69002FAAD0930718BF00231D
:105520000E6808BF4B69F61B0F608B60002E9FDD75
:1055300033463A462846216AD4F828C0E047002876
:1055400006DCA3894FF0FF3043F04003A38190E7CE
:105550000744361AEAE700BF0100402038B50B695E
:1055600005460C4613B90025284638BD18B1836995
:105570000BB9FFF719FA144B9C421BD16C68B4F9B4
:105580000C30002BEFD0626ED00704D4990502D402
:10559000A06DFFF7A7FA28462146FFF75DFF636E6F
:1055A0000546DA07E0D4A3899B05DDD4A06DFFF79B
:1055B0009AFAD9E7054B9C4201D1AC68DFE7044B6E
:1055C0009C4208BFEC68DAE7F4EB000814EC000832
:1055D000D4EB000838B50446084611460022054DB4
:1055E0002A601A46FBF7A2F9431C02D12B6803B1CB
:1055F000236038BDD05E002070B50E46B1F90E10A4
:10560000144600291D4696B008DA0022B6F90C307F
:105610002A601A0610D44FF480630EE06A4600F048
:105620000FF90028F1DB019A02F47042A2F5005351
:105630005A425A412A60EEE740230020236016B008
:1056400070BD00008B8973B59D0706460C4607D5D3
:1056500004F14703236023610123636102B070BD3D
:105660006A4601ABFFF7C8FF009905463046FFF7D1
:105670005BFA48B9B4F90C309A05EFD423F0030370
:1056800043F00203A381E3E70D4BB362A3892060DB
:1056900043F08003A381009B20616361019B5BB1A8
:1056A0003046B4F90E1000F0DDF828B1A38923F0DC
:1056B000030343F00103A381A0890543A581CDE73E
:1056C00041490008034610B5C9B202449342184646
:1056D00001D1002003E0047801338C42F6D110BDE3
:1056E000884210B501EB020402D98442234607D850
:1056F000431EA14208D011F8012B03F8012FF8E74F
:10570000014602448A4200D110BD13F8014D02F84F
:10571000014DF7E70148FFF7E5B900BFC55E00207E
:105720000148FFF7E0B900BFC55E002038B5054667
:10573000002940D051F8043C0C1F002BB8BFE418DE
:10574000FFF7E8FF1C4A136833B96360146028460A
:10575000BDE83840FFF7E4BFA34208D9206821180C
:105760008B4201BF19685B6809182160EDE71A4692
:105770005B680BB1A342FAD911685018A0420BD153
:1057800020680144501883421160E0D118685B68BA
:10579000014411605360DAE702D90C232B60D6E78D
:1057A000206821188B4201BF19685B6809182160C5
:1057B00063605460CBE738BDC85E00202DE9F0413E
:1057C000804614460E4621B91146BDE8F041FFF768
:1057D000ABB92AB9FFF7AAFF25462846BDE8F081F4
:1057E00000F050F88442074602D8B4EB500F12D8AC
:1057F00021464046FFF798F905460028EDD0BC4207
:105800002246314628BF3A46FFF748F8314640461F
:10581000FFF78CFFE1E73546DFE7000038B50446C7
:10582000084611460022054D2A601A46FBF730F85B
:10583000431C02D12B6803B1236038BDD05E002029
:1058400038B50023064D0446084611462B60FBF789
:1058500066F8431C02D12B6803B1236038BD00BF3A
:10586000D05E002038B50023054D044608462B6065
:10587000FBF75AF8431C02D12B6803B1236038BDF3
:10588000D05E002051F8043C181F002BBCBF0B5801
:10589000C0187047014B1868704700BF68EC0008DB
:1058A0002DE9F04F8FB0189F002F3AD007F1500923
:1058B00004464846884616461D4600F031FA80B335
:1058C0007CB3D4F800A0BAF1000F04D064252846B8
:1058D0000FB0BDE8F08F404605F0F0FA30B306B3E4
:1058E000FDB1CE460DF1240CBEE80F00ACE80F0070
:1058F000DEF80030CCF8003000F04EFA84460EABF3
:1059000013E90700CDF818C08DE807000A9B51463F
:10591000099A06A800F0B6FA50B10A2813D001255A
:10592000D5E70B2528460FB0BDE8F08FC825CEE798
:1059300006A804F0FDFE824638B106A800F0E0FAA1
:10594000BAF10A0FEBD10A25C1E74046CDF81CA0F9
:1059500005F0BEFA8246404605F0C2FAEC4686469D
:10596000B9E80F000DF11C0BCDF814B0ACE80F0036
:10597000D9F800302846CCF800305146724606ABC4
:1059800004F072FD054606A800F0BAFA20B95DB130
:10599000672D02D0692D5FD001250798002896D089
:1059A0007B6D396E984792E7404605F0A1FA0028D2
:1059B000F2D00798FAF702FE3B6D396E0130984736
:1059C000DDF81CA081465046FAF7F8FD5146421C0E
:1059D0004846FEF763FF2A46484608A900F002FB46
:1059E000002837D1089B002B38D1C0203B6D396E81
:1059F00098472060A0B3404605F082FA07F164039F
:105A0000009331463B464A46256800F0EFFB21688B
:105A1000C5F8BC00D1F8BC0088B3683100F0BEFC0A
:105A200023680546F0B997F84820184683F8B02057
:105A300039466822FEF732FFD8F80020C0F8B820B7
:105A4000079810B17B6D396E984748467B6D396E6B
:105A500098473CE70125F3E767259EE76725EFE7D1
:105A60000A25EDE7002BF5D0D3F8BC303BB140461A
:105A700005F046FA2368D3F8BC1000F09DFC7B6D5E
:105A8000396E20689847002301252360D8E700BFBE
:105A9000F0B587B06C460D4F064650220C4938468B
:105AA000FEF7FCFE07F15005684600F02BF90FCC1D
:105AB0000FC523682B6000F093FA39467866682298
:105AC0003046FEF7EBFE304607B0F0BDD85E002052
:105AD00070EC0008F8B1036870B50446B3B116461F
